{
  "contractName": "MyContract",
  "abi": [
    {
      "inputs": [
        {
          "internalType": "contract ERC20Claimable",
          "name": "_claimableERC20",
          "type": "address"
        }
      ],
      "stateMutability": "nonpayable",
      "type": "constructor"
    },
    {
      "inputs": [
        {
          "internalType": "address",
          "name": "",
          "type": "address"
        }
      ],
      "name": "custody",
      "outputs": [
        {
          "internalType": "uint256",
          "name": "",
          "type": "uint256"
        }
      ],
      "stateMutability": "view",
      "type": "function",
      "constant": true
    },
    {
      "inputs": [],
      "name": "claimTokensOnBehalf",
      "outputs": [],
      "stateMutability": "nonpayable",
      "type": "function"
    },
    {
      "inputs": [
        {
          "internalType": "address",
          "name": "callerAddress",
          "type": "address"
        }
      ],
      "name": "tokensInCustody",
      "outputs": [
        {
          "internalType": "uint256",
          "name": "",
          "type": "uint256"
        }
      ],
      "stateMutability": "nonpayable",
      "type": "function"
    },
    {
      "inputs": [
        {
          "internalType": "uint256",
          "name": "amountToWithdraw",
          "type": "uint256"
        }
      ],
      "name": "withdrawTokens",
      "outputs": [
        {
          "internalType": "uint256",
          "name": "",
          "type": "uint256"
        }
      ],
      "stateMutability": "nonpayable",
      "type": "function"
    }
  ],
  "bytecode": "0x608060405234801561001057600080fd5b506040516105213803806105218339818101604052602081101561003357600080fd5b8101908080519060200190929190505050806000806101000a81548173ffffffffffffffffffffffffffffffffffffffff021916908373ffffffffffffffffffffffffffffffffffffffff1602179055505061048d806100946000396000f3fe608060405234801561001057600080fd5b506004361061004c5760003560e01c80630776d118146100515780630e4f7f36146100a9578063315a095d146100b3578063e41e91ef146100f5575b600080fd5b6100936004803603602081101561006757600080fd5b81019080803573ffffffffffffffffffffffffffffffffffffffff16906020019092919050505061014d565b6040518082815260200191505060405180910390f35b6100b1610196565b005b6100df600480360360208110156100c957600080fd5b8101908080359060200190929190505050610307565b6040518082815260200191505060405180910390f35b6101376004803603602081101561010b57600080fd5b81019080803573ffffffffffffffffffffffffffffffffffffffff16906020019092919050505061043f565b6040518082815260200191505060405180910390f35b6000600160008373ffffffffffffffffffffffffffffffffffffffff1673ffffffffffffffffffffffffffffffffffffffff168152602001908152602001600020549050919050565b6000809054906101000a900473ffffffffffffffffffffffffffffffffffffffff1673ffffffffffffffffffffffffffffffffffffffff166348c54b9d6040518163ffffffff1660e01b8152600401600060405180830381600087803b1580156101ff57600080fd5b505af1158015610213573d6000803e3d6000fd5b505050506000809054906101000a900473ffffffffffffffffffffffffffffffffffffffff1673ffffffffffffffffffffffffffffffffffffffff16630d25320c6040518163ffffffff1660e01b815260040160206040518083038186803b15801561027e57600080fd5b505afa158015610292573d6000803e3d6000fd5b505050506040513d60208110156102a857600080fd5b8101908080519060200190929190505050600160003373ffffffffffffffffffffffffffffffffffffffff1673ffffffffffffffffffffffffffffffffffffffff16815260200190815260200160002060008282540192505081905550565b60008060009054906101000a900473ffffffffffffffffffffffffffffffffffffffff1673ffffffffffffffffffffffffffffffffffffffff1663a9059cbb33846040518363ffffffff1660e01b8152600401808373ffffffffffffffffffffffffffffffffffffffff1673ffffffffffffffffffffffffffffffffffffffff16815260200182815260200192505050602060405180830381600087803b1580156103b157600080fd5b505af11580156103c5573d6000803e3d6000fd5b505050506040513d60208110156103db57600080fd5b81019080805190602001909291905050505081600160003373ffffffffffffffffffffffffffffffffffffffff1673ffffffffffffffffffffffffffffffffffffffff16815260200190815260200160002060008282540392505081905550919050565b6001602052806000526040600020600091509050548156fea2646970667358221220e52738f00a1a018cab7180e2be0913c542913ff11b4c8406afa06ade459a561f64736f6c63430006020033",
  "source": "// SPDX-License-Identifier: MIT\npragma solidity >=0.4.22 <0.9.0;\nimport \"./ERC20Claimable.sol\";\nimport \"@openzeppelin/contracts/token/ERC20/ERC20.sol\";\n\ncontract MyContract {\n\n  ERC20Claimable claimableERC20;\n  mapping(address=>uint256) public custody;\n\n  constructor(ERC20Claimable _claimableERC20) public {\n    claimableERC20 = _claimableERC20;\n  }\n\n  function claimTokensOnBehalf() external{\n    claimableERC20.claimTokens();\n    custody[msg.sender]+=claimableERC20.distributedAmount();\n  }\n\n\n\tfunction tokensInCustody(address callerAddress) external returns (uint256){\n    return custody[callerAddress];\n  }\n\n\tfunction withdrawTokens(uint256 amountToWithdraw) external returns (uint256){\n    claimableERC20.transfer(msg.sender,amountToWithdraw);\n    custody[msg.sender]-=amountToWithdraw;\n  }\n\n\t//function depositTokens(uint256 amountToWithdraw) external returns (uint256); \n\n\t//function getERC20DepositAddress() external returns (address);\n}\n",
  "sourcePath": "C:\\Users\\Martin\\erc20-102-main\\contracts\\MyContract.sol",
  "compiler": {
    "name": "solc",
    "version": "0.6.2+commit.bacdbe57.Emscripten.clang"
  },
  "schemaVersion": "3.4.3",
  "updatedAt": "2022-01-15T17:09:56.065Z",
  "networkType": "ethereum",
  "devdoc": {
    "methods": {}
  },
  "userdoc": {
    "methods": {}
  }
}